{
  "_format": "hh-sol-artifact-1",
  "contractName": "SecurityLogRegistry",
  "sourceName": "contracts/SecurityLogRegistry.sol",
  "abi": [
    {
      "inputs": [],
      "stateMutability": "nonpayable",
      "type": "constructor"
    },
    {
      "anonymous": false,
      "inputs": [
        {
          "indexed": true,
          "internalType": "uint256",
          "name": "logIndex",
          "type": "uint256"
        },
        {
          "indexed": false,
          "internalType": "string",
          "name": "userId",
          "type": "string"
        },
        {
          "indexed": false,
          "internalType": "string",
          "name": "action",
          "type": "string"
        },
        {
          "indexed": false,
          "internalType": "string",
          "name": "riskScore",
          "type": "string"
        },
        {
          "indexed": false,
          "internalType": "uint256",
          "name": "timestamp",
          "type": "uint256"
        }
      ],
      "name": "LogEmitted",
      "type": "event"
    },
    {
      "inputs": [
        {
          "internalType": "string",
          "name": "userId",
          "type": "string"
        },
        {
          "internalType": "string",
          "name": "action",
          "type": "string"
        },
        {
          "internalType": "string",
          "name": "riskScore",
          "type": "string"
        }
      ],
      "name": "emitLog",
      "outputs": [
        {
          "internalType": "uint256",
          "name": "",
          "type": "uint256"
        }
      ],
      "stateMutability": "nonpayable",
      "type": "function"
    },
    {
      "inputs": [
        {
          "internalType": "uint256",
          "name": "index",
          "type": "uint256"
        }
      ],
      "name": "getLog",
      "outputs": [
        {
          "internalType": "string",
          "name": "userId",
          "type": "string"
        },
        {
          "internalType": "string",
          "name": "action",
          "type": "string"
        },
        {
          "internalType": "string",
          "name": "riskScore",
          "type": "string"
        },
        {
          "internalType": "uint256",
          "name": "timestamp",
          "type": "uint256"
        }
      ],
      "stateMutability": "view",
      "type": "function"
    },
    {
      "inputs": [],
      "name": "getLogCount",
      "outputs": [
        {
          "internalType": "uint256",
          "name": "",
          "type": "uint256"
        }
      ],
      "stateMutability": "view",
      "type": "function"
    },
    {
      "inputs": [],
      "name": "owner",
      "outputs": [
        {
          "internalType": "address",
          "name": "",
          "type": "address"
        }
      ],
      "stateMutability": "view",
      "type": "function"
    }
  ],
  "bytecode": "0x608060405234801561001057600080fd5b50336000806101000a81548173ffffffffffffffffffffffffffffffffffffffff021916908373ffffffffffffffffffffffffffffffffffffffff160217905550610d37806100606000396000f3fe608060405234801561001057600080fd5b506004361061004c5760003560e01c80633206b2c614610051578063618033db146100845780638da5cb5b146100a2578063d8c108a5146100c0575b600080fd5b61006b60048036038101906100669190610535565b6100f0565b60405161007b9493929190610601565b60405180910390f35b61008c610341565b604051610099919061065b565b60405180910390f35b6100aa61034b565b6040516100b791906106b7565b60405180910390f35b6100da60048036038101906100d59190610807565b61036f565b6040516100e7919061065b565b60405180910390f35b60608060606000600254851061013b576040517f08c379a0000000000000000000000000000000000000000000000000000000008152600401610132906108fa565b60405180910390fd5b60006001600087815260200190815260200160002060405180608001604052908160008201805461016b90610949565b80601f016020809104026020016040519081016040528092919081815260200182805461019790610949565b80156101e45780601f106101b9576101008083540402835291602001916101e4565b820191906000526020600020905b8154815290600101906020018083116101c757829003601f168201915b505050505081526020016001820180546101fd90610949565b80601f016020809104026020016040519081016040528092919081815260200182805461022990610949565b80156102765780601f1061024b57610100808354040283529160200191610276565b820191906000526020600020905b81548152906001019060200180831161025957829003601f168201915b5050505050815260200160028201805461028f90610949565b80601f01602080910402602001604051908101604052809291908181526020018280546102bb90610949565b80156103085780601f106102dd57610100808354040283529160200191610308565b820191906000526020600020905b8154815290600101906020018083116102eb57829003601f168201915b50505050508152602001600382015481525050905080600001518160200151826040015183606001519450945094509450509193509193565b6000600254905090565b60008054906101000a900473ffffffffffffffffffffffffffffffffffffffff1681565b60008060009054906101000a900473ffffffffffffffffffffffffffffffffffffffff1673ffffffffffffffffffffffffffffffffffffffff163373ffffffffffffffffffffffffffffffffffffffff1614610400576040517f08c379a00000000000000000000000000000000000000000000000000000000081526004016103f7906109ec565b60405180910390fd5b600060025490506040518060800160405280868152602001858152602001848152602001428152506001600083815260200190815260200160002060008201518160000190816104509190610bb8565b5060208201518160010190816104669190610bb8565b50604082015181600201908161047c9190610bb8565b50606082015181600301559050506002600081548092919061049d90610cb9565b9190505550807f1d76c695fed7f1ee40c45756f9f76fa4102d15b081cd4012f3222b910a970d69868686426040516104d89493929190610601565b60405180910390a2809150509392505050565b6000604051905090565b600080fd5b600080fd5b6000819050919050565b610512816104ff565b811461051d57600080fd5b50565b60008135905061052f81610509565b92915050565b60006020828403121561054b5761054a6104f5565b5b600061055984828501610520565b91505092915050565b600081519050919050565b600082825260208201905092915050565b60005b8381101561059c578082015181840152602081019050610581565b60008484015250505050565b6000601f19601f8301169050919050565b60006105c482610562565b6105ce818561056d565b93506105de81856020860161057e565b6105e7816105a8565b840191505092915050565b6105fb816104ff565b82525050565b6000608082019050818103600083015261061b81876105b9565b9050818103602083015261062f81866105b9565b9050818103604083015261064381856105b9565b905061065260608301846105f2565b95945050505050565b600060208201905061067060008301846105f2565b92915050565b600073ffffffffffffffffffffffffffffffffffffffff82169050919050565b60006106a182610676565b9050919050565b6106b181610696565b82525050565b60006020820190506106cc60008301846106a8565b92915050565b600080fd5b600080fd5b7f4e487b7100000000000000000000000000000000000000000000000000000000600052604160045260246000fd5b610714826105a8565b810181811067ffffffffffffffff82111715610733576107326106dc565b5b80604052505050565b60006107466104eb565b9050610752828261070b565b919050565b600067ffffffffffffffff821115610772576107716106dc565b5b61077b826105a8565b9050602081019050919050565b82818337600083830152505050565b60006107aa6107a584610757565b61073c565b9050828152602081018484840111156107c6576107c56106d7565b5b6107d1848285610788565b509392505050565b600082601f8301126107ee576107ed6106d2565b5b81356107fe848260208601610797565b91505092915050565b6000806000606084860312156108205761081f6104f5565b5b600084013567ffffffffffffffff81111561083e5761083d6104fa565b5b61084a868287016107d9565b935050602084013567ffffffffffffffff81111561086b5761086a6104fa565b5b610877868287016107d9565b925050604084013567ffffffffffffffff811115610898576108976104fa565b5b6108a4868287016107d9565b9150509250925092565b7f496e646578206f7574206f6620626f756e647300000000000000000000000000600082015250565b60006108e460138361056d565b91506108ef826108ae565b602082019050919050565b60006020820190508181036000830152610913816108d7565b9050919050565b7f4e487b7100000000000000000000000000000000000000000000000000000000600052602260045260246000fd5b6000600282049050600182168061096157607f821691505b6020821081036109745761097361091a565b5b50919050565b7f4f6e6c79206f776e65722063616e2063616c6c20746869732066756e6374696f60008201527f6e00000000000000000000000000000000000000000000000000000000000000602082015250565b60006109d660218361056d565b91506109e18261097a565b604082019050919050565b60006020820190508181036000830152610a05816109c9565b9050919050565b60008190508160005260206000209050919050565b60006020601f8301049050919050565b600082821b905092915050565b600060088302610a6e7fffffffffffffffffffffffffffffffffffffffffffffffffffffffffffffffff82610a31565b610a788683610a31565b95508019841693508086168417925050509392505050565b6000819050919050565b6000610ab5610ab0610aab846104ff565b610a90565b6104ff565b9050919050565b6000819050919050565b610acf83610a9a565b610ae3610adb82610abc565b848454610a3e565b825550505050565b600090565b610af8610aeb565b610b03818484610ac6565b505050565b5b81811015610b2757610b1c600082610af0565b600181019050610b09565b5050565b601f821115610b6c57610b3d81610a0c565b610b4684610a21565b81016020851015610b55578190505b610b69610b6185610a21565b830182610b08565b50505b505050565b600082821c905092915050565b6000610b8f60001984600802610b71565b1980831691505092915050565b6000610ba88383610b7e565b9150826002028217905092915050565b610bc182610562565b67ffffffffffffffff811115610bda57610bd96106dc565b5b610be48254610949565b610bef828285610b2b565b600060209050601f831160018114610c225760008415610c10578287015190505b610c1a8582610b9c565b865550610c82565b601f198416610c3086610a0c565b60005b82811015610c5857848901518255600182019150602085019450602081019050610c33565b86831015610c755784890151610c71601f891682610b7e565b8355505b6001600288020188555050505b505050505050565b7f4e487b7100000000000000000000000000000000000000000000000000000000600052601160045260246000fd5b6000610cc4826104ff565b91507fffffffffffffffffffffffffffffffffffffffffffffffffffffffffffffffff8203610cf657610cf5610c8a565b5b60018201905091905056fea264697066735822122099ed5d7b43a655cf4832de3b456fcca78adb240bbb39a0a5d18590d7a4dd0a3d64736f6c63430008140033",
  "linkReferences": {},
  "deployedLinkReferences": {}
}